:100000000C9457000C947F000C947F000C947F009C
:100010000C947F000C947F000C947F000C947F0064
:100020000C947F000C947F000C947F000C947F0054
:100030000C947F000C947F000C947F000C947F0044
:100040000C947F000C947F000C945F020C947F0052
:100050000C947F000C947F000C947F000C947F0024
:100060000C947F000C947F000C947F000C947F0014
:100070000C947F000C947F000C947F000C947F0004
:100080000C947F000C947F000C947F000C947F00F4
:100090000C947F000C947F000C947F000C947F00E4
:1000A0000C947F000C947F000C947F00E6051124D3
:1000B0001FBECFEFCDBFDFE2DEBF10E2A0E0B0E2B7
:1000C000ECE4FCE002C005900D92AE30B107D9F728
:1000D00020E2AEE0B0E201C01D92A732B207E1F724
:1000E00010E0C7E5D0E004C02197FE010E94FD05A5
:1000F000C635D107C9F70E94C7020C9424060C9498
:1001000000008091680690E0809590958470992712
:100110000895809114209091152008952091182021
:1001200030911920822393230895CF93DF93EC011C
:100130000E94810080931220909313201092182027
:10014000109219201092142010921520109216204F
:100150001092172010920F20E0910220F0910320BE
:10016000808191818093102090931120CD2B19F0E4
:1001700081E080930E20DF91CF9108950E9481004D
:1001800020911220309113202817390729F080E0A0
:1001900090E00E94950008952115310529F0809185
:1001A0000E2081115CC003C010920E200895809132
:1001B000142090911520019680931420909315207F
:1001C000209318203093192020911420309115206D
:1001D00080911020909111202817390708F43FC012
:1001E000809116209091172001968093162090936D
:1001F00017208091002090910120809302209093FD
:100200000320209102203091032080910F20E82FBD
:10021000F0E03196EE0FFF1FE20FF31F8081918116
:10022000892B29F080910F208F5F80930F204091C0
:1002300002205091032080910F20209110203091B6
:100240001120E82FF0E0EE0FFF1FE40FF51F808173
:100250009181820F931F8093102090931120089515
:1002600080910520823069F028F08330D9F0843005
:1002700051F108959091042081E089278093042012
:10028000089583E080930520E0910C20F0910D20EB
:1002900080911F2090E0880F991F880F991F80A3DD
:1002A00091A3089584E080930520E0910C20F091C3
:1002B0000D208091202090E0880F991F880F991FB2
:1002C00080A391A3089582E080930520E0910C2003
:1002D000F0910D2080911E2090E0880F991F880FCB
:1002E000991F80A391A30895CF93DF938091052058
:1002F000813061F020F0853008F0DEC06AC0909156
:10030000042081E0892780930420D6C082E0809376
:100310000520E0912520F091262024A535A542A5B1
:1003200053A560A571A5309731F010AE11AE12AE95
:1003300013AE14AE15AEEEE1F0E213821482158214
:1003400087EA91E60197F1F700C000000780F08589
:10035000E02D309741F08FEF90E080AF91AF82AF0A
:1003600093AF84AF95AFEEE1F0E28FEF83838483A8
:10037000858387EA91E60197F1F700C000000780C6
:10038000F085E02D309761F0CB01992780AF91AFD8
:10039000CA01992782AF93AFC901992784AF95AF5E
:1003A000EEE1F0E263834483258383EF91E00197DC
:1003B000F1F700C0000020910C2030910D208081C9
:1003C00090E0880F991F880F991FF90180A391A3CE
:1003D00073C081E080930520E0912520F0912620D4
:1003E00024A535A542A553A560A571A5309731F088
:1003F00010AE11AE12AE13AE14AE15AEEEE1F0E2D9
:1004000013821482158287EA91E60197F1F700C002
:1004100000000780F085E02D309741F08FEF90E0ED
:1004200080AF91AF82AF93AF84AF95AFEEE1F0E2D2
:100430008FEF83838483858387EA91E60197F1F7C1
:1004400000C000000780F085E02D309761F0CB01FF
:10045000992780AF91AFCA01992782AF93AFC901A5
:10046000992784AF95AFCEE1D0E26B834C832D8387
:1004700083EF91E00197F1F700C000006B8185E008
:1004800090E00E940B066C8184E090E00E940B06D5
:100490006D8183E090E00E940B06688182E090E02D
:1004A0000E940B06698181E090E00E940B066A8140
:1004B00080E090E00E940B06DF91CF9108951F929B
:1004C0000F920FB60F9211242F933F934F935F9388
:1004D0006F937F938F939F93AF93BF93EF93FF930C
:1004E00081E080934C080E94BE00809105208230FC
:1004F00018F481E080931D20FF91EF91BF91AF919F
:100500009F918F917F916F915F914F913F912F912B
:100510000F900FBE0F901F9018950F931F93CF93BE
:10052000DF938C01EB0184E090E00E948E00892B28
:1005300051F081E080931C200E94890080931A2052
:1005400090931B200EC090911C20992351F0109283
:100550001C2080911A2090911B204E9710F4F801D6
:10056000099584E090E00E948E00892B59F00E944A
:1005700089008536910530F0FE01099581E090E013
:100580000E949500DF91CF911F910F910895CEE1C8
:10059000D0E211E01E83E0E0F8E0EF83F8871882F4
:1005A0008FEF89838A838B831C821D8287E08093EF
:1005B000410603E0018385E1848380E091E086A326
:1005C00097A385E0808385E090E00E9403068B83FB
:1005D00084E090E00E9403068C8383E090E00E9418
:1005E00003068D8383E090E00E940306888381E008
:1005F00090E00E940306898380E090E00E94030659
:100600008A830093B000E0910A20F0910B208BE1E7
:10061000808BE0E8F1E088E680838FE08087E091DE
:100620000C20F0910D2080E094E086A397A388E051
:10063000808388E88383A0E4B8E011961C92119728
:1006400084EC99E096968D939C93979716961C93BD
:10065000169784E08C93A0E6B6E084E312968C9320
:10066000129788E152968C93529754968C93549794
:1006700055968C931093A20078947F0180A191A14C
:100680009695879596958795182F05EDCC24CA9455
:10069000D12C0F2EF0E6AF2EF6E0BF2EF02D7724F2
:1006A000739464E771E080E391E00E948D02F701AA
:1006B00080A191A19695879596958795181709F42D
:1006C00003C240A151A15695479556954795142FC1
:1006D00080910520833009F4B2C0843009F44FC101
:1006E000823009F0F2C1EA8189804883811016C006
:1006F000AF81B885109771F08E2F90E0D8968D93CA
:100700009C93D997DA968D939C93DB97DC968D9387
:100710009C93DD97EB83EC83ED83D7C15527912C18
:100720002E2E312C9A01A3E8BEEB0E94EE05969581
:100730008795929582958F7089279F708927BC0134
:1007400006039001079F300D1124420F531F9A0199
:10075000220F331F420F531F440F551FB601681954
:1007600079099101629FD001639FB00D729FB00D16
:100770001124FB2F489DB001499D700D589D700DAF
:100780001124672F77271601261A370AB101629FB5
:100790001001639F300C729F300C1124B601641B52
:1007A000750B689DA001699D500D789D500D112419
:1007B000452F55272601441A550A429EB001439EF3
:1007C000700D529E700D1124272F8230910579F003
:1007D0002CF40097D1F0019739F015C083309105C2
:1007E00051F0049761F00FC02E2FE32D0EC02E2F75
:1007F000EB2FF72F0AC0232DFE2FEB2F06C0FE2F65
:10080000E72F2B2F02C02B2FF32DAF81B885109728
:1008100091F08E2F90E0D8968D939C93D997822F4C
:1008200090E0DA968D939C93DB978F2F90E0DC9687
:100830008D939C93DD97EB832C83FD8346C19A8037
:10084000E8814983411110C0EF81F885309741F06C
:10085000892D90E080AF91AF82AF93AF84AF95AF19
:100860009B829C829D8231C1F0E05527292C312C3E
:100870009F01A3E8BEEB0E94EE05969587959295A1
:1008800082958F7089279F708927BC01060390018C
:10089000079F300D1124E20FF31F9F01220F331F1A
:1008A000E20FF31FEE0FFF1FB601641B750B9101E2
:1008B000629FD001639FB00D729FB00D11248B2EEB
:1008C000E49FB001E59F700DF49F700D1124672F18
:1008D00077271601261A370AB101629F1001639F1C
:1008E000300C729F300C112426014E1A5F0A449E70
:1008F000B001459E700D549E700D1124672F77270F
:10090000A601461B570B429FB001439F700D529F9B
:10091000700D1124272F8230910579F02CF4009767
:10092000D1F0019739F015C08330910551F004974B
:1009300061F00FC0292D932C0EC0292D9B2E872EE0
:100940000AC0232D892C9B2E06C0892C972E2B2F75
:1009500002C02B2F832CEF81F885309761F0892D11
:1009600090E080AF91AF822F90E082AF93AF882D5F
:1009700090E084AF95AF9B822C838D82A6C0E981E5
:1009800088804A83E11110C0EF81F885309741F0EB
:10099000CA01992780AF91AF82AF93AF84AF95AF73
:1009A0004B834C834D8391C0912CF0E09401A3E8DC
:1009B000BEEB0E94EE0596958795929582958F7075
:1009C00089279F7089279C010203D001039FB00DE6
:1009D00011248A0E9B1ED401AA0FBB1F8A0E9B1ED8
:1009E000D401AA0FBB1FB6016E1B7F0B9A013327E0
:1009F000629F4001639F900C729F900C1124592CB0
:100A0000AE9FB001AF9F700DBE9F700D1124672F78
:100A100077271601261A370AB101629F1001639FDA
:100A2000300C729F300C1124632CB6016A1B7B0BB7
:100A3000DB01AE9FB001AF9F700DBE9F700D112402
:100A4000672F7727F601E61BF70BBF01629FF001C6
:100A5000639FF00D729FF00D11242F2F82309105AE
:100A600071F02CF40097D9F0019739F014C083305D
:100A7000910549F0049759F00EC0242F11C0692C3C
:100A80005F2E242F0DC0232D692C542E09C06F2EEC
:100A9000292D542E05C0292D532C642E01C0642EFF
:100AA000EF81F885309761F0862D90E080AF91AFAF
:100AB000822F90E082AF93AF852D90E084AF95AF09
:100AC0006B822C835D8201C0182F809105208823C2
:100AD00019F0813039F00BC08E81882309F46BC086
:100AE0001E8269C08E81811166C07E8264C0909131
:100AF0001D20992309F4D5CD10921D20823008F0D5
:100B0000D0CDF5018085908584FF5AC08091042066
:100B1000882309F458C095FF53C055C08E8188239F
:100B200041F1EF81F88520A531A58B8190E0281750
:100B3000390728F480A591A5019680AF91AF22A531
:100B400033A58C8190E02817390728F482A593A556
:100B5000019682AF93AF24A535A58D8190E028172B
:100B6000390708F09ECD84A595A5019684AF95AF71
:100B700098CDEF81F88580A591A5892B29F080A5D6
:100B800091A5019780AF91AF82A593A5892B29F0FC
:100B900082A593A5019782AF93AF84A595A5892BD4
:100BA00009F47FCD84A595A5019784AF95AF79CD44
:100BB00010921D20A6CF80911D208111F9CF71CDFB
:100BC00070920520ABCF10920520A8CFEEE1F0E2A5
:100BD00089E0DF011D928A95E9F70895A29FB0018F
:100BE000B39FC001A39F700D811D1124911DB29F61
:100BF000700D811D1124911D0895EE0FFF1F0590AA
:100C0000F491E02D099403D0808199270895FC0187
:100C1000E050F04F0895262FAF93BF93E0ECF1E042
:100C2000378537FDFDCF808391831282DC01A05090
:100C3000B04F2C9325E3228728ED31E024BF338782
:0C0C40000196BF91AF910895F894FFCF8A
:0E0C4C00062006200101F401000060064009A8
:00000001FF
